S01A0000427573696E657373436172645F5265765F302E7372656329
S11300000C945A000C9477000C9477000C947700AD
S11300100C9477000C9477000C9477000C94770080
S11300200C9477000C9477000C9477000C94770070
S11300300C9477000C94A3000C947E000C9477002D
S11300400C9477000C9477000C9477000C94770050
S11300500C9477000C9477000C9477000C94770040
S11300600C9477000C9477000C9477000C94770030
S11300700C9477000C9477000C9477000C94770020
S11300800C9477000C9477000C9477000C94770010
S11300900C9477000C9463020C9477000C94770012
S11300A00C9477000C9477000C9477000C947700F0
S11300B00C94770011241FBECFEFD8E0DEBFCDBF74
S11300C011E0A0E0B1E0E2EDFEE102C005900D9286
S11300D0A638B107D9F721E0A6E8B1E001C01D9226
S11300E0AE3FB207E1F70E94B2000C94670F0C9484
S11300F000000E948E020E94B60108951F920F9282
S11301000FB60F9211242F933F934F935F936F93E6
S11301107F938F939F93AF93BF93EF93FF930E942B
S11301203A02A89AFF91EF91BF91AF919F918F915D
S11301307F916F915F914F913F912F910F900FBEDF
S11301400F901F9018951F920F920FB60F921124C3
S11301508F9381E08093A1018F910F900FBE0F9038
S11301601F9018950E947900709A2FEF80E792E013
S1130170215080409040E1F700C000005B9A2FEFCF
S113018080E792E0215080409040E1F700C00000F9
S11301905A9A2FEF80E792E0215080409040E1F797
S11301A000C00000439A2FEF80E792E02150804086
S11301B09040E1F700C00000429A2FEF80E792E000
S11301C0215080409040E1F700C00000419A2FEF99
S11301D080E792E0215080409040E1F700C00000A9
S11301E0409A2FEF80E792E0215080409040E1F761
S11301F000C000002FEF81EE94E021508040904039
S1130200E1F700C0000070985B985A9843984298B0
S1130210419840981092A3011092A2010E94F50106
S113022080918E01882351F010928E0180E090E03D
S11302300E94510290938901809388018091A101C9
S1130240882311F11092A101809188019091890174
S113025090938701809386018091A2019091A301DC
S113026001969093A3018093A2018091A2019091A1
S1130270A3010A9748F01092A3011092A2011092D0
S113028089011092880106C08091880190918901AA
S1130290009741F470985B985A9843984298419813
S11302A04098BCCF9C01205131092936310540F4D6
S11302B0709A5B985A984398429841984098AECF68
S11302C09C012A5731092639310540F45B9A70980C
S11302D05A984398429841984098A0CF9C01215144
S11302E031402439310540F45A9A70985B98439808
S11302F042984198409892CF9C01265A3140263921
S1130300310540F4439A70985B985A984298419802
S1130310409884CF9C012D5332402539310540F457
S1130320429A70985B985A9843984198409876CF2F
S11303309C01235D32402539310540F4419A70987F
S11303405B985A9843984298409868CF893693406E
S113035008F464CF409A70985B985A9843984298EE
S113036041985CCF81E080938F0108950F931F9390
S1130370CF93DF9388E087BDE5E6F0E080818F7E50
S113038080835D985E985F982898299884E391E02B
S11303900E942E0D8CEC91E00E94B50DC0E0D0E0DF
S11303A0BE0184E391E00E94B80EBE0184E391E0B3
S11303B00E94D70E2196C530D10591F70AEA11E0C3
S11303C0C0E0A8016C2F83E191E00E947F03CF5F1E
S11303D00B5F1F4FC530A9F780E091E00E946C07C6
S11303E0DF91CF911F910F910895809190018130F9
S11303F051F462EB71E084E391E00E94BF0D81113E
S113040002C01092900180918F01813051F51092B9
S11304108F010E94C70B811113C083E191E00E94F8
S11304209E03882319F082E080938D0180E091E09F
S11304300E94AC07882339F083E080938D0103C0C8
S113044081E080938D01E0911301F091140180818A
S1130450882324F481E080939001089581E08093BF
S11304608E01089581E08093900184E190E00E94E0
S11304707403089580918A0190918B01449739F413
S113048010928B0110928A010E9432020895809189
S11304908A0190918B01019690938B0180938A013C
S11304A008959C01220F331F220F331F220F331F85
S11304B0820F931FE0910401F0910501E80FF91FE9
S11304C08581968108951F920F920FB60F92112481
S11304D02F933F934F935F936F937F938F939F9348
S11304E0AF93BF93EF93FF930E94170FFF91EF9188
S11304F0BF91AF919F918F917F916F915F914F9138
S11305003F912F910F900FBE0F901F901895249834
S11305102C98239A2B980E94E70208958DE38093E8
S113052065008FEF8093640094B114B895B185B9D8
S113053097B1907897B998B19F6798B99AB11AB85A
S11305409BB18BB98DB1807F8DB98EB18F608EB91F
S1130550389A4098399A41983A9A42983B9A4398E3
S1130560529A5A98539A5B98689A709840E060E857
S113057081E690E00E94C60213BE15BE78940E94E4
S1130580DA020E94CD020E94870208952FB7F894E0
S1130590FC01608340832FBF0895E4E6F0E080818E
S11305A0877F808382E08093810081E080936F0065
S11305B080E00895E4E6F0E080818F7D808382E02E
S11305C084BD95E095BD80936E0080E00895E4E6D7
S11305D0F0E080818F7E80831092CD0083E380934E
S11305E0CC001092C80088E98093C90081E791E0AB
S11305F09093FB018093FA0180E00895E8ECF0E029
S1130600908195FFFDCF8093CE0008950E94FE0255
S113061080E090E00895CF92DF92FF920F931F93B2
S1130620CF93DF93EC01AE81BF81EB01CC0FDD1FD3
S1130630C60FD71FCA0FDB1FFA80FC014481558106
S1130640E6E0E69F9001E79F300D11248A01020F36
S1130650131FF80122813381F90121813281F801CC
S113066004811581201B310BE8812E1B3109EC011B
S1130670EA81FB8100811181FA0140E050E04017DA
S1130680510739F146175707F9F012968C911297D2
S1130690F8121AC0808185588230E8F0C480D58071
S11306A082819381EC0189819A81C816D90660F40C
S11306B08C199D09CC91D0E0C817D90728F48C1B5C
S11306C09D0B2817390738F04F5F5F4F1396369606
S11306D0D6CF80E001C081E0DF91CF911F910F91CF
S11306E0FF90DF90CF900895209191013091920175
S11306F0820F931F90939201809391010895009724
S1130700D9F041155105C1F026E0629FB0011124D2
S1130710DC011496ED91FC911597E60FF71F21E08B
S1130720208314968D919C911597FC01E60FF71F79
S11307305383428380E008958BE008952F923F9283
S11307404F925F926F927F928F929F92AF92BF92DD
S1130750CF92DF92EF92FF920F931F93CF93DF9389
S1130760009709F47DC3EC01A12CB12C812C912CB0
S1130770212CD12C33E0C32E45E8642E56E8752E87
S113078067E0362E72E0472EE8E05E2EEA81FB81B8
S1130790808191818816990608F0A5C17501EE0C37
S11307A0FF1C0C811D810E0D1F1DD8018C918430FE
S11307B009F4A2C038F4823001F108F049C0813054
S11307C059F08AC1853809F4C4C0863809F4F8C0E0
S11307D0873009F081C139C1D8011296ED91FC919D
S11307E0139780818E7109F069C14C928C819D812F
S11307F0FC01EE0DFF1D518261C1F801218122230C
S113080029F10280F381E02D253020F0818192814D
S1130810D8010EC0D80114968D919C9115974181F1
S113082052818417950769F04817590730F40197E6
S113083015969C938E93149704C00196F8019583A2
S113084084832150D80111962C9338C1F80130C10A
S1130850D80114962D913C91159712968D919C91E7
S11308601397DC0111964D915C911297241735076B
S113087009F432C18E819F8142175307E0F4241B8F
S1130880350BDC01AA0DBB1D8C9190E0058002C0E4
S1130890959587950A94E2F799272817390708F45C
S11308A01BC18481882309F417C1F8013082EA81CD
S11308B0FB8124811AC0FC01EA0DFB1D421B530B72
S11308C0808190E04817590708F406C18281882383
S11308D031F0B401CE010E940B038111FDC0E4E0AC
S11308E0D801EC93EA81FB8122818C819D81FC01FA
S11308F0EE0DFF1D2183E2C0D80114962D913C9189
S113090015971296ED91FC9113978181928182172C
S1130910930710F4CC92D7C0EE81FF81EA0DFB1D42
S1130920821B930B208130E02817390708F0C9C0D7
S11309308281882331F0B401CE010E940B0381111E
S1130940CBC0F8018181882309F468C08150818378
S1130950B5C0A881B981808513968C93EC81FD8103
S1130960EE0DFF1D44815581A281B38111968D91B5
S11309709C91129784179507C0F0AE81BF81AA0D90
S1130980BB1D6C91262F30E011967C917F5F02C0D5
S1130990359527957A95E2F7841B950B621B262FD4
S11309A030E02817390708F495C07082EA81FB818A
S11309B022818C819D81FC01EE0DFF1D218342C0AB
S11309C0D80114966D917C9115971296ED91FC9136
S11309D01397218132812617370758F411968C9189
S11309E01197811102C0CC9275C08150F8018183A6
S11309F071C0EE81FF81EA0DFB1D8081482F50E01C
S1130A0091819F5F02C0559547959A95E2F7261B01
S1130A10370B841B90E08217930760F4D8016C9223
S1130A20EA81FB8123818C819D81FC01EE0DFF1DF8
S1130A30218350C0F8018181811102C0C0824AC063
S1130A40815081832224239439C0D80114962D9196
S1130A503C91159712968D919C911397DC011196F8
S1130A608D919C9112978217930758F5281B390B87
S1130A70AE81BF81AA0DBB1D8C9190E0058002C0A0
S1130A80959587950A94E2F7992728173907C8F0AE
S1130A90D80111968C91119781110CC0E1E0EC936F
S1130AA08C819D81FC01EE0DFF1D0280F381E02D00
S1130AB0C08212C08150D80111968C93DD24D39446
S1130AC00BC0F801C0828C819D81FC01EE0DFF1DDD
S1130AD0118202C022242394FFEF8F1A9F0A83E01D
S1130AE0A80EB11C53CEE881F981808187FF23C011
S1130AF040E050E020E030E0EA81FB818081918198
S1130B002817390798F4EC81FD81E40FF51FA281C1
S1130B10B3818C9180FD05C09081977F11F0816035
S1130B208C932F5F3F4F4A5F5F4FE6CFE881F98197
S1130B3080818F778083D11007C0E881F9812110EB
S1130B406FC080818E7F6EC0EA81FB81818588239E
S1130B50A1F3E881F981808180688083EA81FB8147
S1130B608185813051F740E050E020E030E096E0AC
S1130B70D92EEA81FB816081718126173707E8F657
S1130B800C811D81FA01EE0FFF1FE00FF11F808120
S1130B90982F977FA1F1853811F08330B1F5EE805D
S1130BA0FF80D701A40FB51F1296BC90BB2039F16A
S1130BB080E090E0C12C86179707F8F428173907CE
S1130BC0D1F0D89ED001D99EB00D1124A00FB11F31
S1130BD0AC91A43011F0A63871F4DC01AA0FBB1F4C
S1130BE0A80FB91FAE0DBF1D1296AC91BA1203C067
S1130BF0CB01CC24C3940196DECFC11006C0028081
S1130C00F381E02D80818E7F05C00280F381E02D89
S1130C108081816080832F5F3F4F4D5F5F4FA9CFFD
S1130C208081816080838091910190919201E8811B
S1130C30F98121813281A90148535F4F481759072F
S1130C4038F4821B930BAA24A394A3E0BA2E44C0C5
S1130C508217930710F080E004C1821B930B019765
S1130C60893C9105C0F3EFCF885C9109E881F98153
S1130C702181328128533F4F3283218323812111E3
S1130C8096C02481222311F021502483E881F98124
S1130C902581222311F0215025838A809B80D40151
S1130CA016962C91169721111BC08A809B80F40103
S1130CB02781211148C0EA81FB812381222361F02D
S1130CC020E030E0A0E0B0E0EA81FB814081518186
S1130CD0A417B50708F46EC0893C910528F6BBCF6C
S1130CE008811981F80124812111DFCFED90FC9056
S1130CF060E070E040E050E04E155F05F1F0EC81FB
S1130D00FD81E60FF71F2081233011F0283081F494
S1130D1024813581C280D380D6011196CD90DC9098
S1130D2012972C153D0520F42F5F3F4F3583248304
S1130D304F5F5F4F6A5F7F4FDFCFF4012681D80199
S1130D4014962C93B2CF08811981D80115962C9151
S1130D502111B1CFE080F18060E070E040E050E02C
S1130D604E155F05F1F0EC81FD81E60FF71F208140
S1130D70233011F0283081F424813581C280D3805E
S1130D80D6011196CD90DC901297C216D30620F4AA
S1130D9021503109358324834F5F5F4F6A5F7F4F52
S1130DA0DFCFF4012781D80115962C9384CF2150ED
S1130DB0238381CFA901440F551FEC81FD81E40FEA
S1130DC0F51F6081653809F047C06181662319F019
S1130DD06150618341C0A0826C817D81FB01E40F7D
S1130DE0F51F0280F381E02DB082EE81FF81E20FD6
S1130DF0F31FD280DD2081F140E050E000E010E0FC
S1130E00EA81FB81608171810617170728F5EE815D
S1130E10FF81E40FF51F6281D61219C0BA01660F73
S1130E20771FEC81FD814F01860E971EF401E2804D
S1130E30F380F701F080F0FE0AC0F401A082EC8197
S1130E40FD81E60FF71F0280F381E02DB0820F5F72
S1130E501F4F4D5F5F4FD4CF11962D5F3F4F34CF5F
S1130E608BE0DF91CF911F910F91FF90EF90DF9076
S1130E70CF90BF90AF909F908F907F906F905F9036
S1130E804F903F902F9008959C016115710509F1D1
S1130E904F5F37FD06C0442321F04150220F331F1A
S1130EA0F8CF77FD04C04F5F660F771FFACF80E05D
S1130EB090E0442381F097FD0CC0880F991F4150A6
S1130EC02617370718F0261B370B0196769567957A
S1130ED0F0CF8FEF9FEF0895CF93DF93FC01892B21
S1130EE0B9F1248135812115310591F1468157816C
S1130EF04115510569F1A081B1811C9290E0A28154
S1130F00B38112968C91981708F5D90189E0989FBE
S1130F10A00DB11D112411961C921197EA0188E0CD
S1130F20989FC00DD11D11248D8112968C93129718
S1130F3014961C921E92139716961C921E92159745
S1130F4018961C921E9217979F5FD9CF80E001C01C
S1130F508BE0DF91CF9108952F923F924F925F9251
S1130F606F927F928F929F92AF92BF92CF92DF92B5
S1130F70EF92FF920F931F93CF93DF93CDB7DEB71A
S1130F8061970FB6F894DEBF0FBECDBFFC0100978A
S1130F9009F4DCC2E480F580FB86EA86EF2809F4D4
S1130FA0D5C2E680F780F986E886EF2809F4CEC238
S1130FB0A281B3814D905C904114510409F4C6C2DE
S1130FC09F838E8300E01A82912C16E0812EAE81DD
S1130FD0BF811296ED91FC9113978281981608F0C7
S1130FE0B0C26884798428E0929E600C711C11243C
S1130FF0D30111964D915C9112971396AC907A019E
S1131000EA0CF11CCA0160E08E159F0570F4889EFD
S1131010F001899EF00D1124E40DF51D2081253881
S113102011F4C70161E00196EFCF849EF001859E23
S1131030F00D1124FD83EC833497E40DF51D26E0B7
S1131040A29E500111241A0170E0198A188A2E14E4
S11310503F0408F04FC086819781DC0111962D91E1
S11310603C91129780859185281B390B1216130623
S113107014F020E030E024163506A9F4D3018C9155
S11310808130F9F46F01CA0CDB1CD6018D919C915F
S1131090DC0111968D919C911297D6011296CD90F8
S11310A0DC90139709C080819181DC0111968D91A8
S11310B09C911297C280D3808C199D091816190629
S11310C014F080E090E0280F391FD30116968D911B
S11310D09C9117972817390740F0888999898217B6
S11310E0930710F4398B288B71E09FEF291A390A82
S11310F03696ADCF711101C060E0A9E09A9E9001CF
S11311001124EA84FB84E20EF31EFF86EE86D701E7
S11311108C91AE81BF811496ED91FC911597B82FF7
S1131120B170BD8780FF1EC07F01E20EF31ED701A0
S11311301796CD90DC901897C601880F991F8C0DD7
S11311409D1DA889B9898A0F9B1F969587959695A9
S11311508795D70118969C938E931797772361F000
S113116061E00AC0CF01820F931FE888F988DC018F
S11311701896FC92EE921797D301BC91B983B230C2
S113118008F0D4C1D30114961C91103D08F0CEC1CF
S1131190611105C0E20FF31F10861782C8C1F30165
S11311A0F381FB83E12EE2949FE0E922EC86AC809C
S11311B0BD80A40CB51CF501BA01212C312C20E012
S11311C030E08B81E82EF12C6A01CE0CDF1C6C150B
S11311D07D05B0F4A281B38111968D919C911297F3
S11311E0A481B5818A1B9B0B181619062CF42816AA
S11311F0390614F41C019B016F5F7F4F3696E7CFCD
S11312004217530779F59981913009F0A1C18C9C5B
S1131210F0018D9CF00D11243697E40DF51DA2818B
S1131220B38111966D917C91129784819581681B8D
S1131230790BEC81FD813696E40DF51DA281B38115
S113124011968D919C9112970480F581E02D8E1B4F
S11312509F0B97FF02C080E090E0861797070CF47D
S11312607BC112C0829EF001839EF00D112436973B
S1131270E40DF51DA281B38111966D917C911297B5
S113128084819581681B790B90E077FF02C060E050
S113129070E0A1E0CA1AD1082C153D0581F4B9818A
S11312A0B13029F5D5011296ED91FC911397C180C7
S11312B0D28014960D90BC91A02DF60114C0F901B2
S11312C031968E9ED0018F9EB00D1124A40DB51DB4
S11312D01296ED91FC9113970180F281E02D149602
S11312E00D90BC91A02DEA1BFB0BF7FF02C0E0E0C0
S11312F0F0E0BB81B03128F0B4E0AB2E88E0B82E2A
S113130003C0A12CACE0BA2E913011F4670103C0E4
S1131310241B350B69010B2C02C0CC0CDD1C0A9478
S1131320E2F76E177F07A8F0C1018E1B9F0B9C018B
S11313302E1B3F0B620F731F4B2D0E94440721E0AD
S113134030E002C0220F331FBA94E2F7821B930BE2
S11313500CC0CF01861B970BF101E61BF70BBF01F5
S1131360680F791F4B2D0E9444078C0D9D1DFB8136
S1131370F33060F02981213019F44A2DB70104C0FB
S1131380B701615071094A2D0E944407813030E150
S1131390930710F080E090E1E980E11017C01F701E
S11313A0A9F028E2129FA00111248417950718F0D0
S11313B0841B950B02C080E090E0440F551F60E051
S11313C070E1641B750B4CE00E9444072CE030E094
S11313D0EC842E19310961E070E002C0660F771FBA
S11313E0EA94E2F7FB01319702C0969587952A9516
S11313F0E2F7E817F90708F4CF01FD84FF20D9F1DB
S1131400AE85BF8513964D915C9114979C01241B66
S1131410350BB981B130A9F4DB01B695A79537FF37
S11314200AC0B195A195B1092A173B070CF096C0E3
S1131430260F371F06C0A217B3070CF095C0261B52
S1131440370B21303105C1F02F3F6FEF3607A1F084
S113145037FF09C031952195310936952795319586
S11314602195310902C036952795240F351FAF0108
S11314704223532301C0AC01AE85BF8514969C93CF
S11314808E931397F301A581EE85FF85658176819F
S1131490F3012481CA01861B970B30813130E1F4BA
S11314A022952F70E1E0F0E002C0EE0FFF1F2A95B5
S11314B0E2F79F013695279597FF09C0319521954D
S11314C031098217930754F48E0F9F1F05C0281704
S11314D03907ACF48E1B9F0B97FF11C09195819532
S11314E09109EE85FF85228130E02817390714F031
S11314F080E01AC0EE85FF85A18312820BC0EE85C1
S1131500FF85218130E02817390794F7EE85FF85A0
S11315101182A2834617570759F3AE85BF851696E5
S11315205C934E93159782E0816802C002E080E0EC
S1131530EE85FF8580838178EA80E82AEA829394A5
S113154046CDED91FC91EA80E08213C00BE011C01E
S113155060E070E090E09DCE91E09BCE2F3F6FEF76
S1131560360709F077CF88CF2130310509F070CFE5
S113157083CF802F61960FB6F894DEBF0FBECDBF28
S1131580DF91CF911F910F91FF90EF90DF90CF905B
S1131590BF90AF909F908F907F906F905F904F908F
S11315A03F902F90089580919A0190919B01A09172
S11315B0F401B091F501ED91FC91119740815181B5
S11315C025E0289FB001299F700D112420E030E010
S11315D084179507A8F41496ED91FC911597E20FE2
S11315E0F31FE60FF71FE0812B5F3F4FE0FD02C0C2
S11315F00196EECF90939B0180939A0180E0089529
S113160010929B0110929A0181E008954AE0489F4C
S11316109001499F300D1124E091F401F091F501FE
S11316200280F381E02DE20FF31F42814093F80022
S1131630E091F401F091F5010280F381E02DE20FD5
S1131640F31F43814093F900E091F401F091F50117
S11316500280F381E02DE20FF31F44814093FA00EE
S1131660E091F401F091F5010280F381E02DE20FA5
S1131670F31F40814093F200E091F401F091F501F1
S11316800280F381E02DE20FF31F41814093F300C8
S113169065E0689FA001699F500D1124E091F40159
S11316A0F091F5010480F581E02DE40FF51F8381AD
S11316B08093E500E091F401F091F5010480F58157
S11316C0E02DE40FF51F8381948188279F73909305
S11316D0E600A091F401B091F5011496ED91FC910E
S11316E01597E40FF51F808181FD608314968D9119
S11316F09C911597FC01E40FF51F80818C7171F4A6
S11317001296ED91FC911397E20FF31FE085E29599
S1131710EF70F0E0E158FE4F808101C08FE38093C9
S1131720E700E091F401F091F5010280F381E02DEE
S1131730E20FF31F86818B3F10F48C5F01C08FEFA3
S11317408093E800E091F401F091F5010280F381C7
S1131750E02DE20FF31F8781807F9185892B809391
S1131760E400E091F401F091F50182819381FC01A0
S1131770E20FF31F87818F708093E10082E18093F1
S1131780E0008091E90081608093E90008954F9220
S11317905F926F927F928F929F92AF92BF92CF92FD
S11317A0DF92EF92FF920F931F93CF93DF93809179
S11317B09901882309F431C1A091F401B091F50194
S11317C0E090F601F090F701412C512C60E070E0BC
S11317D000E010E080E06624639491E8792EAA2466
S11317E0AA94BB24B394CD90DC901197F601208188
S11317F031810217130708F00CC1E70129913991CF
S11318007E011496ED91FC911597E60FF71F408128
S11318104C7150E05695479556954795411551059D
S113182021F041305105C1F0EBC012964D915C910D
S11318301397440D551DEA0198859F7049859417A7
S113184010F4491B01C040E002C0369527954A9523
S1131850E2F732832183D5C012964D915C911397A0
S1131860440D551DEA01098402C0369527950A9452
S1131870E2F732832183438154812115D2E03D076D
S113188020F02F5F314091E005C0E501C21BD30B6E
S11318909E0190E0E601DA80D0E4DD1205C03695C1
S11318A02795992319F009C0992339F04F3F9FE3F5
S11318B0590731F470828EE007C08824839401C0F4
S11318C0812C2A30310598F41496ED91FC911597EA
S11318D0E60FF71F208127FF60821496ED91FC919B
S11318E01597E60FF71F5F73548343838AC06A0119
S11318F0CC24C0E3DC229D2C9294DFE09D226A017B
S1131900CC24DFE0DD229D2D6A01C0EFCC22DD2452
S113191054E0D694C7945A95E1F75C2D4F7081102A
S113192032C0203D310560F0D3E09D1649F0939418
S11319302F5C3109F6CF9F3041F09F5F255131096B
S113194026313105C0F79F3069F493E0991202C043
S11319509FE008C0939495E005C05F3049F05F5F55
S11319602250310923303105C0F75F3009F05BC0E4
S11319709F3009F454C09F5F55E055C0992061F031
S11319809A942F5C3109203D3105C0F705C0992395
S113199041F091502551310926313105C0F791119B
S11319A00CC0911002C090E008C09A949AE005C05F
S11319B0552341F051502250310923303105C0F7ED
S11319C051110DC09923B9F191505AE023303105DA
S11319D0D0F605C02330310558F14FE05FE0292DE2
S11319E030E0322F22273295307F392B242BC0E16F
S11319F05C9F60011124C22AD32AD482C38201C00D
S1131A00FFCF0F5F1F4F6B5F7F4FDAE04D0E511C0E
S1131A10EACE92E09093990110C083E00EC053E0A7
S1131A209516C1F25FE02330310508F07ACFD7CFA5
S1131A305FE04FE0D4CF50E0D2CFDF91CF911F9140
S1131A400F91FF90EF90DF90CF90BF90AF909F9059
S1131A508F907F906F905F904F9008958F929F9298
S1131A60AF92BF92CF92DF92EF92FF92CF93DF9328
S1131A70009709F46CC0DC01ED91FC91C080D18029
S1131A80E12CF12CA0E0B0E040E050E0BA0120E00D
S1131A9030E0AC15BD05B1F0EC01EA81FB81EE0D3F
S1131AA0FF1DA080B1802A293B2982809380A480D5
S1131AB0B580482959296A297B291196DAE0ED0E67
S1131AC0F11CE7CF411551056105710509F441C0C9
S1131AD0E09199016A017B01CC24EE24FF24DB010F
S1131AE0CA0188279927BB27E11115C02093F0006C
S1131AF03093F1004093F400CD2CDE2CEF2CFF2426
S1131B00C092F500CD01AA27BB278093F60081E09F
S1131B10809399011AC0E091F0002E2B2093F000DD
S1131B202091F100232B2093F1002091F400422B0B
S1131B304093F4002091F5002D292093F500209185
S1131B40F600822F8A2B8093F60080E003C08BE09E
S1131B5001C082E0DF91CF91FF90EF90DF90CF90B2
S1131B60BF90AF909F908F900895009731F090931D
S1131B70F7018093F60180E008958BE00895CF93F8
S1131B80DF9300D000D0CDB7DEB710929D01109244
S1131B909E0110929F011092A0016115710509F434
S1131BA0DBC0009709F4D8C020919901222309F4DD
S1131BB0D5C0243009F093C010929C018091E900B3
S1131BC080FF8BC02091E80030E0A6E0B0E00E94E6
S1131BD0580F60939D0170939E0180939F01909391
S1131BE0A0012091E3002F70DC01CB01820F911D35
S1131BF0A11DB11D80939D0190939E01A0939F010F
S1131C00B093A0012091E400277004C0880F991FAD
S1131C10AA1FBB1F2A95D2F70E96A11DB11D809352
S1131C209D0190939E01A0939F01B093A0012091E8
S1131C30E100237004C0880F991FAA1FBB1F2A95B7
S1131C40D2F722E0B695A795979587952A95D1F76F
S1131C5080939D0190939E01A0939F01B093A00156
S1131C6019821A821B821C8221E049815A816B816C
S1131C707C81481759076A077B07B0F430919C01AF
S1131C80332329F089839A83AB83BC8320E0498181
S1131C905A816B817C814F5F5F4F6F4F7F4F4983C8
S1131CA05A836B837C83E1CF2223B9F08091E900CE
S1131CB080FF13C01092E000000082E18093E000F6
S1131CC0000081E08093E900809195019091960154
S1131CD00196909396018093950181E042C0909380
S1131CE0F5018093F4017093940160939301DC01F6
S1131CF0ED91FC918281803411F488E003C0803836
S1131D0079F58AE08093E200E091F401F091F50125
S1131D100190F081E02D8481803108F080E180938E
S1131D20E30081E084BB8093740010929B011092C5
S1131D309A010E94D30A81110BC084E08093990117
S1131D4080919A0190919B010E94060B80E009C04A
S1131D5082E08093990105C08BE003C083E001C059
S1131D6082E00F900F900F900F90DF91CF91089524
S1131D700097C9F0DC01ED91FC911197208131812C
S1131D802617370790F045E0469F9001479F300D96
S1131D9011241496ED91FC911597E20FF31F81E045
S1131DA0808380E008958BE0089582E00895009791
S1131DB0D1F1DC01ED91FC9111972081318126173D
S1131DC0370798F122811496ED91FC9115972034F0
S1131DD059F485E0869FD001879FB00D1124AE0F82
S1131DE0BF1F84E392E00CC0203881F485E0869F15
S1131DF0D001879FB00D1124AE0FBF1F87E695E079
S1131E0014969C938E93139780E001C082E095E032
S1131E10969F9001979F300D1124E20FF31F90813C
S1131E209260908308958BE0089582E00895109263
S1131E30E00081E080939C018091EE006091EF00CE
S1131E4020919A0130919B01A901440F551FE09103
S1131E50F601F091F701E40FF51F90E0962B9183C2
S1131E6080838091970190919801019690939801B5
S1131E7080939701892B21F4109296011092950179
S1131E802F5F3F4F30939B0120939A010E94D30A06
S1131E90811109C084E08093990180919A01909105
S1131EA09B010C94060BE0919301F0919401099429
S1131EB0A29FB001B39FC001A39F700D811D112487
S1131EC0911DB29F700D811D1124911D0895F894E8
S1051ED0FFCF3E
S1131ED28C011001C301080100000005AA081400C6
S1131EE2D60101A4012A01D6011B01140101140126
S1131EF2011401011401011401010500040005008B
S1131F02140514016C013A01AA0100000000080042
S1131F1200010004000000000400000100040000AD
S1131F2200800000000100040000004000000001E5
S1131F3200040000002000000001000405008030BD
S1131F420000000002000000000603000000003F41
S1091F521C0B0503010055
S9030000FC
