:100000000C9462000C947F000C947F000C947F0091
:100010000C947F000C947F000C947F000C947F0064
:100020000C947F000C94AA000C947F000C947F0029
:100030000C947F000C947F000C9485000C947F003E
:100040000C947F000C947F000C947F000C947F0034
:100050000C947F000C947F000C947F000C947F0024
:100060000C947F000C947F000C947F000C947F0014
:100070000C947F000C947F000C947F000C947F0004
:100080000C947F000C947F000C947F000C947F00F4
:100090000C947F000C94D4030C947F000C947F008C
:1000A0000C947F000C947F000C947F000C947F00D4
:1000B0000C947F0093015101530158015E016701C7
:1000C0007301820111241FBECFEFD8E0DEBFCDBF88
:1000D00011E0A0E0B1E0EAE0F5E202C005900D9287
:1000E000A839B107D9F722E0A8E9B1E001C01D9213
:1000F000AC32B207E1F70E94D6010C9483120C9443
:1001000000000E942E040C9429031F920F920FB638
:100110000F9211242F933F934F935F936F937F938D
:100120008F939F93AF93BF93EF93FF930E949F038F
:10013000A89AFF91EF91BF91AF919F918F917F917D
:100140006F915F914F913F912F910F900FBE0F9044
:100150001F9018951F920F920FB60F9211240F90B7
:100160000FBE0F901F90189548B121E030E0662334
:1001700049F0B90102C0660F771F8A95E2F7CB01FB
:10018000842B09C0B90102C0660F771F8A95E2F778
:10019000CB018095842388B90895682F80E00C9462
:1001A000B400682F81E00C94B400682F82E00C94B6
:1001B000B400682F83E00C94B400882311F0709A87
:1001C00008957098089580919A0190919B018339C8
:1001D000910510F481E058C080919A0190919B01A3
:1001E0008439910548F080919A0190919B01853264
:1001F000914010F482E048C080919A0190919B0157
:100200008632914048F080919A0190919B01873B02
:10021000914010F483E038C080919A0190919B0145
:10022000883B914048F080919A0190919B018A34DB
:10023000924010F484E028C080919A0190919B0133
:100240008B34924048F080919A0190919B018C3DB3
:10025000924010F485E018C080919A0190919B0122
:100260008D3D924048F080919A0190919B018E368D
:10027000934010F486E008C080919A0190919B0110
:100280008A36934018F087E080939801089590E0B3
:100290008830910508F047C0FC01E65AFF4F0C94E6
:1002A0006E1281E041C05B9A80E00E94DD003FC099
:1002B0005A9A80E00E94DD005B983AC081E00E947B
:1002C000D90080E00E94DD005B985A9834C081E03C
:1002D0000E94D50080E00E94DD005B985A9880E083
:1002E0000E94D9002BC081E00E94D10080E00E94D2
:1002F000DD005B985A9880E00E94D90080E00E945F
:10030000D5001FC081E00E94CD0080E00E94DD008A
:100310005B985A9880E00E94D90080E00E94D50046
:1003200080E00C94D10080E00E94DD005B985A9838
:1003300080E00E94D90080E00E94D50080E00E9409
:10034000D10080E00C94CD0083B7817F866083BFAD
:10035000089581E08093000184EB90E09093A401E4
:100360008093A301089583B7816083BF78948895B3
:1003700083B78E7F83BF8091A5019091A6010196DE
:100380009093A6018093A5012091A5013091A6012B
:1003900080918F01909190012817390730F01092C9
:1003A000A6011092A5010C94A90108950E94810054
:1003B0000E94A40181E00E94DD002FEF86E791E01A
:1003C000215080409040E1F700C0000080E00E9492
:1003D000DD005B9A2FEF86E791E02150804090404E
:1003E000E1F700C000005B985A9A2FEF86E791E092
:1003F000215080409040E1F700C000005A9881E011
:100400000E94D9002FEF86E791E021508040904074
:10041000E1F700C0000080E00E94D90081E00E9466
:10042000D5002FEF86E791E0215080409040E1F722
:1004300000C0000080E00E94D50081E00E94D10051
:100440002FEF86E791E0215080409040E1F700C017
:10045000000080E00E94D10081E00E94CD002FEFDB
:1004600086E791E0215080409040E1F700C0000015
:1004700080E00E94CD0081E00E94D1002FEF86E74E
:1004800091E0215080409040E1F700C0000080E002
:100490000E94D10081E00E94D5002FEF86E791E015
:1004A000215080409040E1F700C0000080E00E94B1
:1004B000D50081E00E94D9002FEF86E791E021501E
:1004C00080409040E1F700C0000080E00E94D90029
:1004D0005A9A2FEF86E791E0215080409040E1F753
:1004E00000C000005A985B9A2FEF86E791E02150F8
:1004F00080409040E1F700C000005B9881E00E94DE
:10050000DD002FEF86E791E0215080409040E1F739
:1005100000C0000080E00E94DD0080910001813079
:1005200019F40E94700302C00E94B3018091A001DF
:10053000882331F11092A00180E090E00E94B50381
:100540008093990180E090E00E94C40390939B0106
:1005500080939A0180919901882339F01092A40127
:100560001092A3010E94E3000BC0109298018091A9
:10057000A3019091A40101969093A4018093A301FB
:10058000809198010E9447012091A3013091A4011C
:1005900080918E0190E02817390708F4BECF1092A1
:1005A000A4011092A30110920001B7CF81E08093C3
:1005B000A101089587FF02C081E007C086FD03C046
:1005C00010929F0108958F708E5F80939F01089510
:1005D0000F931F93CF93DF9383EE91E00E94CB1094
:1005E000C0E0D0E0BE0181E591E00E94CE11BE01E5
:1005F00081E591E00E94ED112196C530D10591F77A
:1006000001EC11E0C0E0A8016C2F80E391E00E94B2
:100610003005CF5F0B5F1F4FC530A9F78DE191E02B
:10062000DF91CF911F910F910C941D09E091300142
:10063000F0913101808187FF08C0E091ED01F091D8
:10064000EE01808184608083089581E08093A00121
:10065000089588E087BDE5E6F0E080818F7E8083A5
:100660005D985E985F9828982998EFEEF1E01082E7
:1006700089E191E09283818383E191E09483838394
:100680008BE091E0968385838FE091E0908787836C
:1006900081E091E09287818787E091E0948783876A
:1006A0008DED9EE09687858788EE92E0908B878718
:1006B0008AED92E0928B818B86ED92E0948B838B16
:1006C000168A158A86E193E0908F878BCF010E946E
:1006D000A40C0E949F0C9093EE018093ED0108956D
:1006E0008091A201813039F480E00E94030D8111D4
:1006F00002C01092A2018091A1018130C1F40E9438
:10070000530D811103C00E945B0D03C080E80E945D
:10071000DA021092A101E091ED01F091EE018081E9
:1007200082FF05C091E09093A2018B7F80830895A2
:1007300081E08093A20184E190E00C9425058091F2
:100740009C0190919D01449731F410929D0110926B
:100750009C010C94980380919C0190919D010196BD
:1007600090939D0180939C01089529E0AC01249F02
:10077000C001259F900D1124E0912101F0912201EB
:10078000E80FF91F8081089529E0AC01249FC00182
:10079000259F900D1124E0912101F0912201E80F95
:1007A000F91F8581968108951F920F920FB60F92BF
:1007B00011242F933F934F935F936F937F938F9366
:1007C0009F93AF93BF93EF93FF930E942D12FF91DE
:1007D000EF91BF91AF919F918F917F916F915F91B9
:1007E0004F913F912F910F900FBE0F901F90189532
:1007F00044B121E030E0B90102C0660F771F8A954D
:10080000E2F7CB01962F9095492344B995B1892BF6
:1008100085B908954AB121E030E0B90102C0660F00
:10082000771F8A95E2F7CB01962F909549234AB915
:100830009BB1892B8BB908954DB121E030E0B9010E
:1008400002C0660F771F8A95E2F7CB01962F90952D
:1008500049234DB99EB1892B8EB908958DE38093BC
:1008600065008FEF8093640094B114B895B185B999
:1008700097B1907897B998B19F6798B99AB11AB81B
:100880009BB18BB98DB1807F8DB98EB18F608EB9E0
:10089000229882E00E94F803239883E00E94F803E4
:1008A000249884E00E94F803259885E00E94F803CC
:1008B000269886E00E94F803279887E00E94F803B4
:1008C000389A4098399A41983A9A42983B9A439874
:1008D0003C983C98449A3D983D98459A509880E0C1
:1008E0000E940A04519881E00E940A04529A5A9880
:1008F000539A5B98549884E00E940A04689A70980E
:10090000699881E00E941C046A9882E00E941C049D
:100910006B9883E00E941C0440E060E881E690E070
:100920000E949A0487E083BF15BE78940E94A104B8
:100930000C94AF042FB7F894FC01608340832FBF61
:100940000895E4E6F0E080818F7D808382E084BDBD
:1009500085E085BD83E080936E0080E00895E4E645
:10096000F0E080818F7B808387E08093B10081E01D
:100970008093700080E00895CF92DF92FF920F93F2
:100980001F93CF93DF93EC01AE81BF81EB01CC0FBE
:10099000DD1FC60FD71FCA0FDB1FFA80FC01448181
:1009A0005581E6E0E69F9001E79F300D11248A0112
:1009B000020F131FF80122813381F9012181328155
:1009C000F80104811581201B310BE8812E1B3109B0
:1009D000EC01EA81FB8100811181FA0140E050E0E5
:1009E0004017510739F146175707F9F012968C91C5
:1009F0001297F8121AC0808185588230E8F0C480BE
:100A0000D58082819381EC0189819A81C816D906AB
:100A100060F48C199D09CC91D0E0C817D90728F44F
:100A20008C1B9D0B2817390738F04F5F5F4F1396CB
:100A30003696D6CF80E001C081E0DF91CF911F9143
:100A40000F91FF90DF90CF9008952091A7013091F2
:100A5000A801820F931F9093A8018093A701089586
:100A60000097D9F041155105C1F026E0629FB00111
:100A70001124DC011496ED91FC911597E60FF71FF8
:100A800021E0208314968D919C911597FC01E60F2F
:100A9000F71F5383428380E008958BE008952F92DF
:100AA0003F924F925F926F927F928F929F92AF92FE
:100AB000BF92CF92DF92EF92FF920F931F93CF934B
:100AC000DF93009709F47DC3EC01A12CB12C812C9C
:100AD000912C212CD12C33E0C32E45E8642E56E80E
:100AE000752E67E0362E72E0472EE8E05E2EEA8132
:100AF000FB81808191818816990608F0A5C1750156
:100B0000EE0CFF1C0C811D810E0D1F1DD8018C9158
:100B1000843009F4A2C038F4823001F108F049C0F1
:100B2000813059F08AC1853809F4C4C0863809F487
:100B3000F8C0873009F081C139C1D8011296ED9112
:100B4000FC91139780818E7109F069C14C928C8160
:100B50009D81FC01EE0DFF1D518261C1F8012181D3
:100B6000222329F10280F381E02D253020F08181BC
:100B70009281D8010EC0D80114968D919C91159741
:100B8000418152818417950769F04817590730F45D
:100B9000019715969C938E93149704C00196F801C3
:100BA000958384832150D80111962C9338C1F80184
:100BB00030C1D80114962D913C91159712968D91C4
:100BC0009C911397DC0111964D915C91129724171B
:100BD000350709F432C18E819F8142175307E0F433
:100BE000241B350BDC01AA0DBB1D8C9190E0058008
:100BF00002C0959587950A94E2F799272817390737
:100C000008F41BC18481882309F417C1F8013082DC
:100C1000EA81FB8124811AC0FC01EA0DFB1D421B05
:100C2000530B808190E04817590708F406C1828170
:100C3000882331F0B401CE010E94BC048111FDC0B3
:100C4000E4E0D801EC93EA81FB8122818C819D81D3
:100C5000FC01EE0DFF1D2183E2C0D80114962D91F9
:100C60003C9115971296ED91FC9113978181928199
:100C70008217930710F4CC92D7C0EE81FF81EA0D62
:100C8000FB1D821B930B208130E02817390708F0E9
:100C9000C9C08281882331F0B401CE010E94BC0416
:100CA0008111CBC0F8018181882309F468C081508B
:100CB0008183B5C0A881B981808513968C93EC811E
:100CC000FD81EE0DFF1D44815581A281B3811196F6
:100CD0008D919C91129784179507C0F0AE81BF81CA
:100CE000AA0DBB1D6C91262F30E011967C917F5F81
:100CF00002C0359527957A95E2F7841B950B621B08
:100D0000262F30E02817390708F495C07082EA8151
:100D1000FB8122818C819D81FC01EE0DFF1D2183D1
:100D200042C0D80114966D917C9115971296ED9161
:100D3000FC911397218132812617370758F41196B9
:100D40008C911197811102C0CC9275C08150F8012D
:100D5000818371C0EE81FF81EA0DFB1D8081482FE8
:100D600050E091819F5F02C0559547959A95E2F7B3
:100D7000261B370B841B90E08217930760F4D80181
:100D80006C92EA81FB8123818C819D81FC01EE0DB7
:100D9000FF1D218350C0F8018181811102C0C082F2
:100DA0004AC0815081832224239439C0D8011496EB
:100DB0002D913C91159712968D919C911397DC0182
:100DC00011968D919C9112978217930758F5281BC5
:100DD000390BAE81BF81AA0DBB1D8C9190E00580BF
:100DE00002C0959587950A94E2F799272817390745
:100DF000C8F0D80111968C91119781110CC0E1E0D7
:100E0000EC938C819D81FC01EE0DFF1D0280F3812E
:100E1000E02DC08212C08150D80111968C93DD2440
:100E2000D3940BC0F801C0828C819D81FC01EE0D32
:100E3000FF1D118202C022242394FFEF8F1A9F0A04
:100E400083E0A80EB11C53CEE881F981808187FF31
:100E500023C040E050E020E030E0EA81FB81808167
:100E600091812817390798F4EC81FD81E40FF51F73
:100E7000A281B3818C9180FD05C09081977F11F094
:100E800081608C932F5F3F4F4A5F5F4FE6CFE881D1
:100E9000F98180818F778083D11007C0E881F98143
:100EA00021106FC080818E7F6EC0EA81FB818185B9
:100EB0008823A1F3E881F981808180688083EA81B9
:100EC000FB818185813051F740E050E020E030E047
:100ED00096E0D92EEA81FB81608171812617370760
:100EE000E8F60C811D81FA01EE0FFF1FE00FF11FE4
:100EF0008081982F977FA1F1853811F08330B1F56B
:100F0000EE80FF80D701A40FB51F1296BC90BB20C6
:100F100039F180E090E0C12C86179707F8F4281784
:100F20003907D1F0D89ED001D99EB00D1124A00F61
:100F3000B11FAC91A43011F0A63871F4DC01AA0FF6
:100F4000BB1FA80FB91FAE0DBF1D1296AC91BA12F0
:100F500003C0CB01CC24C3940196DECFC11006C0E0
:100F60000280F381E02D80818E7F05C00280F381B5
:100F7000E02D8081816080832F5F3F4F4D5F5F4F09
:100F8000A9CF8081816080838091A7019091A80181
:100F9000E881F98121813281A90148535F4F4817C7
:100FA000590738F4821B930BAA24A394A3E0BA2E0A
:100FB00044C08217930710F080E004C1821B930B9A
:100FC0000197893C9105C0F3EFCF885C9109E881D6
:100FD000F9812181328128533F4F3283218323813C
:100FE000211196C02481222311F021502483E8810D
:100FF000F9812581222311F0215025838A809B804D
:10100000D40116962C91169721111BC08A809B80C3
:10101000F4012781211148C0EA81FB812381222329
:1010200061F020E030E0A0E0B0E0EA81FB814081A7
:101030005181A417B50708F46EC0893C910528F6C4
:10104000BBCF08811981F80124812111DFCFED90F8
:10105000FC9060E070E040E050E04E155F05F1F07C
:10106000EC81FD81E60FF71F2081233011F028303D
:1010700081F424813581C280D380D6011196CD9030
:10108000DC9012972C153D0520F42F5F3F4F3583E0
:1010900024834F5F5F4F6A5F7F4FDFCFF40126816C
:1010A000D80114962C93B2CF08811981D8011596D6
:1010B0002C912111B1CFE080F18060E070E040E040
:1010C00050E04E155F05F1F0EC81FD81E60FF71F52
:1010D0002081233011F0283081F424813581C280B1
:1010E000D380D6011196CD90DC901297C216D3060C
:1010F00020F421503109358324834F5F5F4F6A5FAD
:101100007F4FDFCFF4012781D80115962C9384CF30
:101110002150238381CFA901440F551FEC81FD810C
:10112000E40FF51F6081653809F047C061816623CF
:1011300019F06150618341C0A0826C817D81FB0107
:10114000E40FF51F0280F381E02DB082EE81FF8174
:10115000E20FF31FD280DD2081F140E050E000E09B
:1011600010E0EA81FB81608171810617170728F57D
:10117000EE81FF81E40FF51F6281D61219C0BA011A
:10118000660F771FEC81FD814F01860E971EF401DB
:10119000E280F380F701F080F0FE0AC0F401A08243
:1011A000EC81FD81E60FF71F0280F381E02DB08214
:1011B0000F5F1F4F4D5F5F4FD4CF11962D5F3F4F95
:1011C00034CF8BE0DF91CF911F910F91FF90EF9083
:1011D000DF90CF90BF90AF909F908F907F906F9057
:1011E0005F904F903F902F9008959C01611571057D
:1011F00009F14F5F37FD06C0442321F04150220F13
:10120000331FF8CF77FD04C04F5F660F771FFACF0B
:1012100080E090E0442381F097FD0CC0880F991F77
:1012200041502617370718F0261B370B0196769585
:101230006795F0CF8FEF9FEF0895CF93DF93FC0179
:10124000892BB9F1248135812115310591F1468130
:1012500057814115510569F1A081B1811C9290E03F
:10126000A281B38112968C91981708F5D90189E073
:10127000989FA00DB11D112411961C921197EA019F
:1012800088E0989FC00DD11D11248D8112968C93FA
:10129000129714961C921E92139716961C921E92E9
:1012A000159718961C921E9217979F5FD9CF80E0D2
:1012B00001C08BE0DF91CF9108952F923F924F9222
:1012C0005F926F927F928F929F92AF92BF92CF92D6
:1012D000DF92EF92FF920F931F93CF93DF93CDB7DF
:1012E000DEB761970FB6F894DEBF0FBECDBFFC012D
:1012F000009709F4DCC2E480F580FB86EA86EF28DB
:1013000009F4D5C2E680F780F986E886EF2809F46B
:10131000CEC2A281B3814D905C904114510409F476
:10132000C6C29F838E8300E01A82912C16E0812E24
:10133000AE81BF811296ED91FC9113978281981630
:1013400008F0B0C26884798428E0929E600C711C19
:101350001124D30111964D915C9112971396AC9084
:101360007A01EA0CF11CCA0160E08E159F0570F449
:10137000889EF001899EF00D1124E40DF51D208159
:10138000253811F4C70161E00196EFCF849EF0018A
:10139000859EF00D1124FD83EC833497E40DF51D3B
:1013A00026E0A29E500111241A0170E0198A188AC1
:1013B0002E143F0408F04FC086819781DC011196FE
:1013C0002D913C91129780859185281B390B12161F
:1013D000130614F020E030E024163506A9F4D301FA
:1013E0008C918130F9F46F01CA0CDB1CD6018D9110
:1013F0009C91DC0111968D919C911297D6011296C9
:10140000CD90DC90139709C080819181DC01119609
:101410008D919C911297C280D3808C199D091816CA
:10142000190614F080E090E0280F391FD3011696BA
:101430008D919C9117972817390740F088899989D1
:101440008217930710F4398B288B71E09FEF291ACC
:10145000390A3696ADCF711101C060E0A9E09A9EBD
:1014600090011124EA84FB84E20EF31EFF86EE86CF
:10147000D7018C91AE81BF811496ED91FC911597A7
:10148000B82FB170BD8780FF1EC07F01E20EF31E32
:10149000D7011796CD90DC901897C601880F991F39
:1014A0008C0D9D1DA889B9898A0F9B1F96958795DC
:1014B00096958795D70118969C938E9317977723C7
:1014C00061F061E00AC0CF01820F931FE888F988BC
:1014D000DC011896FC92EE921797D301BC91B98368
:1014E000B23008F0D4C1D30114961C91103D08F01D
:1014F000CEC1611105C0E20FF31F10861782C8C16B
:10150000F301F381FB83E12EE2949FE0E922EC8674
:10151000AC80BD80A40CB51CF501BA01212C312C86
:1015200020E030E08B81E82EF12C6A01CE0CDF1C2C
:101530006C157D05B0F4A281B38111968D919C91BB
:101540001297A481B5818A1B9B0B181619062CF4DF
:101550002816390614F41C019B016F5F7F4F3696E5
:10156000E7CF4217530779F59981913009F0A1C16E
:101570008C9CF0018D9CF00D11243697E40DF51D27
:10158000A281B38111966D917C911297848195818E
:10159000681B790BEC81FD813696E40DF51DA28167
:1015A000B38111968D919C9112970480F581E02D65
:1015B0008E1B9F0B97FF02C080E090E08617970775
:1015C0000CF47BC112C0829EF001839EF00D1124A9
:1015D0003697E40DF51DA281B38111966D917C9132
:1015E000129784819581681B790B90E077FF02C088
:1015F00060E070E0A1E0CA1AD1082C153D0581F425
:10160000B981B13029F5D5011296ED91FC9113976E
:10161000C180D28014960D90BC91A02DF60114C00B
:10162000F90131968E9ED0018F9EB00D1124A40D2C
:10163000B51D1296ED91FC9113970180F281E02D7A
:1016400014960D90BC91A02DEA1BFB0BF7FF02C076
:10165000E0E0F0E0BB81B03128F0B4E0AB2E88E0F0
:10166000B82E03C0A12CACE0BA2E913011F4670162
:1016700003C0241B350B69010B2C02C0CC0CDD1CF4
:101680000A94E2F76E177F07A8F0C1018E1B9F0B2B
:101690009C012E1B3F0B620F731F4B2D0E94F50800
:1016A00021E030E002C0220F331FBA94E2F7821B20
:1016B000930B0CC0CF01861B970BF101E61BF70BB8
:1016C000BF01680F791F4B2D0E94F5088C0D9D1DE1
:1016D000FB81F33060F02981213019F44A2DB701E4
:1016E00004C0B701615071094A2D0E94F50881308C
:1016F00030E1930710F080E090E1E980E11017C03D
:101700001F70A9F028E2129FA001112484179507E9
:1017100018F0841B950B02C080E090E0440F551F29
:1017200060E070E1641B750B4CE00E94F5082CE052
:1017300030E0EC842E19310961E070E002C0660FE0
:10174000771FEA94E2F7FB01319702C096958795DF
:101750002A95E2F7E817F90708F4CF01FD84FF2086
:10176000D9F1AE85BF8513964D915C9114979C017C
:10177000241B350BB981B130A9F4DB01B695A795CF
:1017800037FF0AC0B195A195B1092A173B070CF0A4
:1017900096C0260F371F06C0A217B3070CF095C0DE
:1017A000261B370B21303105C1F02F3F6FEF360775
:1017B000A1F037FF09C0319521953109369527955C
:1017C00031952195310902C036952795240F351F93
:1017D000AF014223532301C0AC01AE85BF851496EF
:1017E0009C938E931397F301A581EE85FF85658108
:1017F0007681F3012481CA01861B970B3081313039
:10180000E1F422952F70E1E0F0E002C0EE0FFF1F3F
:101810002A95E2F79F013695279597FF09C03195E4
:10182000219531098217930754F48E0F9F1F05C02D
:1018300028173907ACF48E1B9F0B97FF11C09195A9
:1018400081959109EE85FF85228130E028173907BF
:1018500014F080E01AC0EE85FF85A18312820BC0D0
:10186000EE85FF85218130E02817390794F7EE8552
:10187000FF851182A2834617570759F3AE85BF85AE
:1018800016965C934E93159782E0816802C002E041
:1018900080E0EE85FF8580838178EA80E82AEA820D
:1018A000939446CDED91FC91EA80E08213C00BE069
:1018B00011C060E070E090E09DCE91E09BCE2F3FA4
:1018C0006FEF360709F077CF88CF2130310509F067
:1018D00070CF83CF802F61960FB6F894DEBF0FBE16
:1018E000CDBFDF91CF911F910F91FF90EF90DF90CF
:1018F000CF90BF90AF909F908F907F906F905F90B0
:101900004F903F902F90089595E09093AB01E09118
:101910002602F09127020188F289E02D309709F024
:101920000994FFCFE0912602F09127020388F48901
:10193000E02D309709F0099480E40C94840C809198
:101940002602909127020895CF93909327028093C7
:1019500026028091AB01853039F0823028F08091E9
:10196000A901882371F140C01092A901C0E0A091A3
:101970002602B09127028C2F90E0880F991F1196B4
:10198000ED91FC911297E80FF91F0190F081E02D85
:10199000309729F317962D913C911897D901A80FEC
:1019A000B91F8D919C910995882329F08091A901F7
:1019B0008F5F8093A901CF5F8091A9018823B9F23D
:1019C000CECF82E08093AB01E0912602F091270216
:1019D0000784F089E02D309711F0099508C085E063
:1019E0008093AB0181E001C08F5F8093A90180915A
:1019F000A901882331F01092A90180E8CF910C94BD
:101A0000840CCF9108951F93CF93DF93182FA0914B
:101A10002602B091270215962D913C911697D0E0A1
:101A2000F901ED0FF11DED0FF11D80819181892BE1
:101A300011F0DF5FF5CF53968D919C915497892BD0
:101A400049F1812F90E0880F991FF901E80FF91FE4
:101A50000190F081E02D3097E9F01B962D913C919B
:101A60001C97D901A80FB91F8D919C91009791F0F7
:101A700062E97CE00995C82F811106C083E080935C
:101A8000AB011092AA0103C082E08093AB011D1745
:101A900028F001C0C2E082E80E94840C8C2FDF9104
:101AA000CF911F910895E0912602F09127020584BD
:101AB000F685E02D09941F93CF93DF931F92CDB746
:101AC000DEB71982E0912602F09127020588F68997
:101AD000E02D309749F082E08093AB01CE01019672
:101AE000099583E08093AB018091A90181112CC0FD
:101AF0001981111129C084E08093AB01A0912602C5
:101B0000B09127028091AA0190E0880F991F139647
:101B1000ED91FC911497E80FF91F0190F081E02DF1
:101B200019962D913C911A97309781F0D901A80F01
:101B3000B91F8D919C91099581113EC08091AA0198
:101B40008F5F8093AA01DACF10E03DC01092AA0106
:101B5000F901E10FF11DE10FF11D0190F081E02D80
:101B6000309759F00190F081E02D808187FF03C00C
:101B70009C9194609C931F5FEBCF1093AA0182E02D
:101B80008093AB015796ED91FC915897309711F0E7
:101B9000099505C08091A9018F5F8093A90110E08C
:101BA0008091A901882379F01092A9018091AA015E
:101BB00080640E94840C07C08091A9018F5F80938C
:101BC000A90113E0EDCF812F0F90DF91CF911F91ED
:101BD00008958091B3019091B401A0912802B09131
:101BE0002902ED91FC9111974081518125E0289FB8
:101BF000B001299F700D112420E030E08417950773
:101C0000A8F41496ED91FC911597E20FF31FE60FDF
:101C1000F71FE0812B5F3F4FE0FD02C00196EECF42
:101C20009093B4018093B30180E008951092B401C1
:101C30001092B30181E008954AE0489F9001499FC6
:101C4000300D1124E0912802F09129020280F381E5
:101C5000E02DE20FF31F42814093F800E09128024B
:101C6000F09129020280F381E02DE20FF31F4381FE
:101C70004093F900E0912802F09129020280F3815B
:101C8000E02DE20FF31F44814093FA00E091280217
:101C9000F09129020280F381E02DE20FF31F4081D1
:101CA0004093F200E0912802F09129020280F38132
:101CB000E02DE20FF31F41814093F30065E0689F40
:101CC000A001699F500D1124E0912802F091290292
:101CD0000480F581E02DE40FF51F83818093E500FA
:101CE000E0912802F09129020480F581E02DE40FB3
:101CF000F51F8381948188279F739093E600A091BC
:101D00002802B09129021496ED91FC911597E40FE9
:101D1000F51F808181FD608314968D919C911597AC
:101D2000FC01E40FF51F80818C7171F41296ED9126
:101D3000FC911397E20FF31FE085E295EF70F0E05E
:101D4000EF56FE4F808101C08FE38093E700E09162
:101D50002802F09129020280F381E02DE20FF31FA7
:101D600086818B3F10F48C5F01C08FEF8093E80079
:101D7000E0912802F09129020280F381E02DE20F28
:101D8000F31F8781807F9185892B8093E400E09108
:101D90002802F091290282819381FC01E20FF31F56
:101DA00087818F708093E10082E18093E0008091D1
:101DB000E90081608093E90008954F925F926F92ED
:101DC0007F928F929F92AF92BF92CF92DF92EF92CB
:101DD000FF920F931F93CF93DF938091B2018823DB
:101DE00009F431C1A0912802B0912902E0902A02A1
:101DF000F0902B02412C512C60E070E000E010E0EC
:101E000080E06624639491E8792EAA24AA94BB24E6
:101E1000B394CD90DC901197F601208131810217A7
:101E2000130708F00CC1E701299139917E0114963E
:101E3000ED91FC911597E60FF71F40814C7150E032
:101E400056954795569547954115510521F04130D6
:101E50005105C1F0EBC012964D915C911397440D62
:101E6000551DEA0198859F704985941710F4491B08
:101E700001C040E002C0369527954A95E2F73283CB
:101E80002183D5C012964D915C911397440D551D39
:101E9000EA01098402C0369527950A94E2F7328355
:101EA0002183438154812115D2E03D0720F02F5F2B
:101EB000314091E005C0E501C21BD30B9E0190E0CB
:101EC000E601DA80D0E4DD1205C036952795992326
:101ED00019F009C0992339F04F3F9FE3590731F4B6
:101EE00070828EE007C08824839401C0812C2A3040
:101EF000310598F41496ED91FC911597E60FF71FB4
:101F0000208127FF60821496ED91FC911597E60FD2
:101F1000F71F5F73548343838AC06A01CC24C0E3F4
:101F2000DC229D2C9294DFE09D226A01CC24DFE02C
:101F3000DD229D2D6A01C0EFCC22DD2454E0D69431
:101F4000C7945A95E1F75C2D4F70811032C0203D47
:101F5000310560F0D3E09D1649F093942F5C310970
:101F6000F6CF9F3041F09F5F255131092631310571
:101F7000C0F79F3069F493E0991202C09FE008C057
:101F8000939495E005C05F3049F05F5F22503109BE
:101F900023303105C0F75F3009F05BC09F3009F492
:101FA00054C09F5F55E055C0992061F09A942F5C12
:101FB0003109203D3105C0F705C0992341F091500A
:101FC0002551310926313105C0F791110CC091100E
:101FD00002C090E008C09A949AE005C0552341F0F1
:101FE00051502250310923303105C0F751110DC035
:101FF0009923B9F191505AE023303105D0F605C04C
:102000002330310558F14FE05FE0292D30E0322FC9
:1020100022273295307F392B242BC0E15C9F600151
:102020001124C22AD32AD482C38201C0FFCF0F5FFA
:102030001F4F6B5F7F4FDAE04D0E511CEACE92E0EE
:102040009093B20110C083E00EC053E09516C1F228
:102050005FE02330310508F07ACFD7CF5FE04FE063
:10206000D4CF50E0D2CFDF91CF911F910F91FF904D
:10207000EF90DF90CF90BF90AF909F908F907F9028
:102080006F905F904F9008958F929F92AF92BF9202
:10209000CF92DF92EF92FF92CF93DF93009709F4F4
:1020A0006CC0DC01ED91FC91C080D180E12CF12C61
:1020B000A0E0B0E040E050E0BA0120E030E0AC1534
:1020C000BD05B1F0EC01EA81FB81EE0DFF1DA080A2
:1020D000B1802A293B2982809380A480B580482939
:1020E00059296A297B291196DAE0ED0EF11CE7CF18
:1020F000411551056105710509F441C0E091B20136
:102100006A017B01CC24EE24FF24DB01CA0188276D
:102110009927BB27E11115C02093F0003093F100FF
:102120004093F400CD2CDE2CEF2CFF24C092F50060
:10213000CD01AA27BB278093F60081E08093B201EE
:102140001AC0E091F0002E2B2093F0002091F100B6
:10215000232B2093F1002091F400422B4093F400B4
:102160002091F5002D292093F5002091F600822F73
:102170008A2B8093F60080E003C08BE001C082E0F0
:10218000DF91CF91FF90EF90DF90CF90BF90AF9015
:102190009F908F900895009731F090932B02809339
:1021A0002A0280E008958BE00895CF93DF9300D05A
:1021B00000D0CDB7DEB71092B6011092B7011092E1
:1021C000B8011092B9016115710509F4DBC00097DF
:1021D00009F4D8C02091B201222309F4D5C02430DB
:1021E00009F093C01092B5018091E90080FF8BC087
:1021F0002091E80030E0A6E0B0E00E947412609305
:10220000B6017093B7018093B8019093B901209102
:10221000E3002F70DC01CB01820F911DA11DB11DC8
:102220008093B6019093B701A093B801B093B90120
:102230002091E400277004C0880F991FAA1FBB1FBC
:102240002A95D2F70E96A11DB11D8093B6019093E9
:10225000B701A093B801B093B9012091E1002370B8
:1022600004C0880F991FAA1FBB1F2A95D2F722E02E
:10227000B695A795979587952A95D1F78093B6013E
:102280009093B701A093B801B093B90119821A8253
:102290001B821C8221E049815A816B817C81481715
:1022A00059076A077B07B0F43091B501332329F051
:1022B00089839A83AB83BC8320E049815A816B81F7
:1022C0007C814F5F5F4F6F4F7F4F49835A836B8392
:1022D0007C83E1CF2223B9F08091E90080FF13C015
:1022E0001092E000000082E18093E000000081E0B5
:1022F0008093E9008091AE019091AF010196909397
:10230000AF018093AE0181E042C090932902809397
:1023100028027093AD016093AC01DC01ED91FC915A
:102320008281803411F488E003C0803879F58AE036
:102330008093E200E0912802F09129020190F0815F
:10234000E02D8481803108F080E18093E30081E01A
:1023500084BB809374001092B4011092B3010E9468
:10236000E90D81110BC084E08093B2018091B3012B
:102370009091B4010E941C0E80E009C082E080931D
:10238000B20105C08BE003C083E001C082E00F9082
:102390000F900F900F90DF91CF9108950097C9F0A3
:1023A000DC01ED91FC9111972081318126173707CF
:1023B00090F045E0469F9001479F300D1124149600
:1023C000ED91FC911597E20FF31F81E0808380E08F
:1023D00008958BE0089582E008950097D1F1DC0123
:1023E000ED91FC911197208131812617370798F1E3
:1023F00022811496ED91FC911597203459F485E0D3
:10240000869FD001879FB00D1124AE0FBF1F84E3BC
:1024100092E00CC0203881F485E0869FD001879F30
:10242000B00D1124AE0FBF1F87E695E014969C9364
:102430008E93139780E001C082E095E0969F900113
:10244000979F300D1124E20FF31F908192609083CB
:1024500008958BE0089582E008951092E00081E0F5
:102460008093B5018091EE006091EF002091B3015F
:102470003091B401A901440F551FE0912A02F09157
:102480002B02E40FF51F90E0962B918380838091BF
:10249000B0019091B10101969093B1018093B00188
:1024A000892B21F41092AF011092AE012F5F3F4FA4
:1024B0003093B4012093B3010E94E90D811109C04A
:1024C00084E08093B2018091B3019091B4010C94A7
:1024D0001C0EE091AC01F091AD010994EE0FFF1FCD
:1024E0000590F491E02D0994A29FB001B39FC00123
:1024F000A39F700D811D1124911DB29F700D811D30
:0A2500001124911D0895F894FFCFF7
:10250A000130011D01000051010000D510000051E9
:10251A000100004F055D090000441000009E012DD6
:10252A0001DA01250100000005AA081400080201C9
:10253A00BB01470108023801140101140101140109
:10254A000114010114010105000400050014051419
:10255A000189015701C101000000000800000100C3
:10256A0004000000000400000100040000008000D4
:10257A000000010004000000400000000100040007
:10258A000000200000000100040500803000C8643B
:08259A00003F1C0B05030100CA
:00000001FF
